:020000040800F2
:1000000000500020451900082D180008331800087A
:10001000391800083F1800084518000800000000C3
:100020000000000000000000000000004B18000865
:100030005718000800000000631800086F18000837
:100040008D1900088D1900088D1900088D190008F8
:100050008D1900088D1900088D1900088D190008E8
:100060008D1900088D1900088D1900088D190008D8
:100070008D1900088D1900088D1900088D190008C8
:100080008D1900088D1900088D1900088D190008B8
:100090008D1900088D1900088D1900088D190008A8
:1000A0008D1900088D1900088D1900088D19000898
:1000B0008D1900087D1800088D1900088D19000899
:1000C0008D1900088D1900088D1900088D19000878
:1000D0008D19000891180008A5180008B918000823
:1000E0008D1900088D1900088D1900080000000006
:1000F0000000000000000000000000000000000000
:0C01000000000000000000005FF808F1A3
:10010C0010B5054C237833B9044B13B10448AFF345
:10011C0000800123237010BDE002002000000000CD
:10012C001854000808B5034B1BB103490348AFF33F
:10013C00008008BD00000000E402002018540008F4
:10014C0080B500AF0F4801F029F80346002B18D0FA
:10015C000C4800F019F8034683F00103DBB2002BC6
:10016C000ED1084BDB78012B02D0032B04D008E016
:10017C00044800F029F804E0024800F04AF800E0D6
:10018C0000BF80BDFC02002080B584B000AF786059
:10019C0000F00AFA0346FB737B681B78012B01D035
:1001AC0000230DE07B685B78FF2B01D0002307E078
:1001BC007B689B78FA7B9A4201D0002300E00123F4
:1001CC0018461037BD4680BD80B588B000AF78604A
:1001DC0000F0EAF90346FB7700F0ACFA034683F033
:1001EC000103DBB2002B05D0FB7F0021184600F089
:1001FC0052F80BE007F10C03184600F081FA07F1F6
:10020C000C02FB7F1146184600F045F82037BD461E
:10021C0080BD80B588B000AF78607B689B79FB753A
:10022C000023FB770CE0FB7F5A1CFB7F79680A44A8
:10023C00927920333B4403F8182CFB7F0133FB7776
:10024C00FB7DFA7F9A42EED3FB7D01337A6813442F
:10025C009B793B76FB7D02337A6813449B797B76E2
:10026C00FB7D03337A6813449B79BB7607F1080353
:10027C00184600F06BFA0346BB7700F095F903467D
:10028C007B77BA7F7B7F1146184600F0EDF800BFF4
:10029C002037BD4680BD80B5C6B000AF024607F51D
:1002AC008C73A3F58C73196007F58C73A3F211137F
:1002BC001A7007F58C73A3F5867301221A7007F573
:1002CC008C73A3F5867307F58C72A2F21112127857
:1002DC005A7007F58C73A3F58673FF229A7007F595
:1002EC008C73A3F586730222DA7007F58C73A3F571
:1002FC008C731B68002B00F0A18007F58C73A3F5A1
:10030C00867300221A7107F58C73A3F5867300228D
:10031C005A7107F58C73A3F586735B795A1CD1B2AD
:10032C0007F58C72A2F586725171194607F58C731C
:10033C00A3F58C731B68DA7B07F58C73A3F58673B6
:10034C000B449A710023C7F8143120E007F58C7325
:10035C00A3F586735B795A1CD1B207F58C72A2F5A2
:10036C0086725171194607F58C73A3F58C731A6854
:10037C00D7F8143113441A7807F58C73A3F58673E8
:10038C000B449A71D7F814310133C7F8143107F5BF
:10039C008C73A3F58C731B68DB7B1A46D7F814316E
:1003AC009342D3DB07F58C73A3F586735B795A1CE8
:1003BC00D1B207F58C72A2F586725171194607F508
:1003CC008C73A3F58C731B681A7C07F58C73A3F5DF
:1003DC0086730B449A7107F58C73A3F586735B795E
:1003EC005A1CD1B207F58C72A2F58672517119465E
:1003FC0007F58C73A3F58C731B685A7C07F58C730B
:10040C00A3F586730B449A7107F58C73A3F5867369
:10041C005B795A1CD1B207F58C72A2F586725171B8
:10042C00194607F58C73A3F58C731B689A7C07F53A
:10043C008C73A3F586730B449A710BE007F58C73E0
:10044C00A3F5867301221A7107F58C73A3F58673D5
:10045C0000225A7107F10C03184600F087FE00BF0A
:10046C0007F58C77BD4680BD80B5C4B000AF0246A1
:10047C0007F58873A3F209131A7007F58873A3F5AF
:10048C0085730A461A7007F58873A3F584730122E5
:10049C001A7007F58873A3F5847307F58872A2F2B6
:1004AC00091212785A7007F58873A3F58473FF222A
:1004BC009A7007F58873A3F584730422DA7007F534
:1004CC008873A3F5847300221A7107F58873A3F55A
:1004DC00847301225A7107F58873A3F5847307F5A9
:1004EC008872A2F5857212789A7107F10803184682
:1004FC0000F03CFE00BF07F58877BD4680BD0000CC
:10050C0080B485B000AF786039600023BB810023D4
:10051C00FB7316E0BB891B021AB2BB891B0A9BB288
:10052C0018467B68591C79601B784340DBB20A493A
:10053C0031F813301BB253401BB2BB81FB7B013330
:10054C00FB73FB7B3A689A42E4D8BB891846143794
:10055C00BD4680BC704700BF9058000880B582B083
:10056C0000AF00237B6015E00E497A6813469B00B0
:10057C0013449B000B4418687A6813469B00134481
:10058C009B00084A13440433194601F041FC7B6874
:10059C0001337B607B68012BE6D900BF00BF0837B5
:1005AC00BD4680BD0000002080B582B000AF0023A6
:1005BC00FB7100233B6027E017493A6813469B0008
:1005CC0013449B000B44186813493A6813469B006C
:1005DC0013449B000B4404331B689BB2194601F077
:1005EC009BFD0346002B0CBF01230023DBB21A46F4
:1005FC003B6802FA03F35AB297F9073013435BB224
:10060C00FB713B6801333B603B68012BD4D9FB7910
:10061C0018460837BD4680BD0000002080B582B06A
:10062C0000AF03460A46FB711346BB71FA790C49BD
:10063C0013469B0013449B000B441868FA79084935
:10064C0013469B0013449B000B4404331B689BB262
:10065C00BA79194601F077FD00BF0837BD4680BD59
:10066C002800002080B582B000AF786039607B68CC
:10067C00012B07D13B684FF6FF72934202D1094818
:10068C0003F000FC7B68002B07D13B684FF6FF7230
:10069C00934202D1034803F018FC00BF0837BD4653
:1006AC0080BD00BF0404002080B500AF4FF6FF7181
:1006BC000120FFF7D7FF80BD80B500AF4FF6FF716B
:1006CC000020FFF7CFFF80BD80B500AF064B1B6845
:1006DC000649184601F09CFB012000F0ABF90448D8
:1006EC0003F03AFC00BF80BD5000002054000020F5
:1006FC006400002080B500AF00F092F800BF80BD10
:10070C00B0B483B000AF78607A68094B67331D686A
:10071C005C689868D968156054609060D160198ADB
:10072C009B7C1182937400BF0C37BD46B0BC7047E4
:10073C006400002080B400AF034B93F8653018467A
:10074C00BD4680BC704700BF6400002080B588B0F7
:10075C0002AF78602F4B93F8653083F00103DBB266
:10076C00002B01D0702351E07B68DA7B294B93F886
:10077C0076309A4201D0712348E078687B68DB7B45
:10078C001A46254904F062F90346002B01D0722366
:10079C003CE00023BB6007F10C0300221A605A6096
:1007AC009A6007F1080310221946786800F056F990
:1007BC007A687B680F33322100910021154803F0D1
:1007CC00F3FC034683F00103DBB2002B01D0702352
:1007DC001CE079687B68DA7B104B01930123009352
:1007EC0008230C4803F05AFD0346002B01D1732358
:1007FC000CE007F108031A460821064803F01BFE1B
:10080C000346002B01D1742300E00023184618374F
:10081C00BD4680BD64000020CB000020905A00082B
:10082C00B0B58EB002AF4C4A07F1280392E8030032
:10083C0018600433198002330A0C1A7000237B6190
:10084C0007F1180300221A605A609A6007F1270317
:10085C0007F12802642100910021404803F0A4FC18
:10086C00034683F00103DBB2002B08D03B4B002284
:10087C0083F86520394B702283F8772068E0374B7A
:10088C0093F8653083F00103DBB2002B03D0334BBC
:10089C00012283F86620314B012283F8652097F8FA
:1008AC00272007F128012E4B0193012300930823E5
:1008BC002A4803F0F3FC0346002B04D1274B732288
:1008CC0083F8772044E007F114031A4608212348E3
:1008DC0003F06EFD0346002B04D1204B752283F8E8
:1008EC00772035E097F82730FB7397F827301A46B6
:1008FC0007F128013B46184604F0B8F83A4607F1D0
:10090C0014031021184600F0F3F8034683F001039A
:10091C00DBB2002B08D0114B712283F877200F4BE0
:10092C00712283F8642013E000233B740B4B0022EC
:10093C0083F86420094B03F167053C460FCC286013
:10094C006960AA60EB602388A2782B821346AB7493
:10095C003037BD46B0BD00BF4054000864000020D5
:10096C00905A000880B582B000AF786039603A6860
:10097C007968012000F0D4FA00BF0837BD4680BD6D
:10098C0080B586B000AFF860B9607A6000237B61F7
:10099C0001F050F8386101F04DF802463B69D31A6A
:1009AC007A689A4216D3012000F0D4FA0346002B41
:1009BC00F1D0012000F0E4FA034619467B695A1C79
:1009CC007A61FA681344CAB21A707A69BB689A429F
:1009DC0002D2E0E700BF00E000BF00BF1837BD4601
:1009EC0080BD80B500AF012000F0B4FA0346184674
:1009FC0080BD80B582B000AF32237B6001F01AF865
:100A0C003860012000F0A6FA0346002B0BD0012021
:100A1C0000F0B6FA01F00EF802463B68D31A7A6879
:100A2C009A4202D3EDE700BF00E000BF00BF0837D9
:100A3C00BD4680BD80B582B000AF0346FB71064B4E
:100A4C001B68054A526891B2FA79184601F07BFB93
:100A5C0000BF0837BD4680BD5000002080B586B071
:100A6C0000AFF860B9607A600023FB75FB7D5A1CFF
:100A7C00FA751A46BB681344FA68527C1A70FB7DEF
:100A8C005A1CFA751A46BB681344FA68927C1A70A1
:100A9C00FB7D1946B86800F06DF80346BB82BB8A33
:100AAC001B0A9AB2FB7D591CF9751946BB680B449D
:100ABC00D2B21A70FB7D5A1CFA751A46BB681344E5
:100ACC00BA8AD2B21A70FA68FB68DB7B19461046F8
:100ADC0000F07FF80346FB74FB7D5A1CFA751A462E
:100AEC00BB681344FA7C1A7000BF1837BD4680BD32
:100AFC0080B586B000AFF860B9607A60BB68102B27
:100B0C0001D0002332E0FB681A787B685A74FB68CA
:100B1C005A787B689A740221F86800F02BF8034627
:100B2C00FB82FB6802331B781B021AB2FB6803338F
:100B3C001B781BB213431BB2BB82FA8ABB8A9A4244
:100B4C0001D0002312E0FB681B79FB747A687B6888
:100B5C00DB7B1946104600F03CF80346BB74FA7C6C
:100B6C00BB7C9A4201D0002300E0012318461837C1
:100B7C00BD4680BD80B487B000AF78603960FF237C
:100B8C00FB750023BB7500233B6110E03B697A6861
:100B9C0013441A78FB7D5340FB753B697A68134408
:100BAC001A78BB7D1344BB753B6901333B613B69D0
:100BBC003A689A42EAD8FB7D1B021AB2BB7D1BB283
:100BCC0013431BB2FB81FB8918461C37BD4680BC06
:100BDC00704780B485B000AF78603960FF23FB7339
:100BEC000023BB6009E0BB687A6813441A78FB7B6E
:100BFC005340FB73BB680133BB60BB683A689A42D5
:100C0C00F1D8FB7B18461437BD4680BC704780B5C5
:100C1C0090B000AF07F1180328220021184603F00A
:100C2C0033FF3B1D00221A605A609A60DA601A6129
:100C3C000A23BB610123BB621023FB6201233B63CC
:100C4C0002237B630023BB634FF40023FB6307F198
:100C5C001803184601F090FA0346002B01D000F05F
:100C6C00BAFC0F237B600223BB600023FB600023D4
:100C7C003B6100237B613B1D0021184601F0FEFC0B
:100C8C000346002B01D000F0A6FC00BF18464037ED
:100C9C00BD4680BD80B500AF00F0CCFE00BF18464D
:100CAC0080BD80B485B000AF78607B685B00FB6072
:100CBC0000BFFB685A1EFA60002BFAD100BF00BFC0
:100CCC001437BD4680BC704780B485B000AF1B4B59
:100CDC009B691A4A43F004039361184B9B6903F018
:100CEC000403FB60FB68154B9B69144A43F0080333
:100CFC009361124B9B6903F00803BB60BB680F4BFD
:100D0C009B690E4A43F0100393610C4B9B6903F0F3
:100D1C0010037B607B68094B9B69084A43F02003F6
:100D2C009361064B9B6903F020033B603B6800BF5B
:100D3C0018461437BD4680BC704700BF00100240F7
:100D4C0080B586B000AF07F1080300221A605A6024
:100D5C009A60DA603B4600221A605A60184801F02B
:100D6C001BFE0346002B01D000F035FC4FF48053E2
:100D7C00BB6007F108031946114801F0B7FF0346A1
:100D8C00002B01D000F027FC00233B6000237B608C
:100D9C003B4619460A4802F08DF90346002B01D058
:100DAC0000F019FC064801F047FE0346002B01D069
:100DBC0000F011FC012318461837BD4680BD00BF5A
:100DCC00E000002080B483B000AF78600A4B1B6851
:100DDC00092B01D9002309E0074B1B685A1C064953
:100DEC000A6006497A6841F82320012318460C371B
:100DFC00BD4680BC704700BF440400201C0400208A
:100E0C0080B584B000AF78607B681A680B4B1B68A8
:100E1C009A420FD10023FB6007E0094AFB6852F8A5
:100E2C0023309847FB680133FB60FA68054B1B685D
:100E3C009A42F2D300BF1037BD4680BDE0000020BF
:100E4C001C0400204404002080B582B000AF0123B4
:100E5C00FB71304B1B69184602F09CF90346002BC2
:100E6C0004D1FB79002B01D0012300E00023FB719E
:100E7C00FB7903F00103FB71264B1B6A184602F049
:100E8C0089F90346002B04D1FB79002B01D00123F7
:100E9C0000E00023FB71FB7903F00103FB711D4B98
:100EAC009B690121184603F053FC0346002B04D028
:100EBC00FB79002B01D0012300E00023FB71FB79AF
:100ECC0003F00103FB71134B9B6A0121184603F0DD
:100EDC003FFC0346002B04D0FB79002B01D00123EF
:100EEC0000E00023FB71FB7903F00103FB71094B5C
:100EFC001B6901220849184602F01FFA054B1B6AB0
:100F0C0001220649184602F018FAFB7918460837F0
:100F1C00BD4680BD000200201C0200202C020020D7
:100F2C0080B584B000AF0346B9607A60FB73FB7B7D
:100F3C00074A1B01134418687B689AB26423B9688A
:100F4C0002F078F900BF18461037BD4680BD00BFCF
:100F5C000002002080B582B000AF0346FB71FB7924
:100F6C00064A1B01134408331B68184603F06CFC3B
:100F7C00034618460837BD4680BD00BF000200205E
:100F8C0080B584B000AF0346FB71FB79074A1B01A7
:100F9C00134408331B6807F10E021146184603F080
:100FAC0029FCFB8918461037BD4680BD0002002085
:100FBC0080B483B000AF03463960FB71FB79054AFE
:100FCC001B01134404333A681A6000BF0C37BD464A
:100FDC0080BC70470002002080B582B000AF786002
:100FEC007B681A682D4B1B681B689A4216D12B4BD9
:100FFC009B682B49184603F0CBFB284B5B68002BF6
:10100C0004D0264B5B68012125489847234B1B686D
:10101C0001222349184602F090F93AE07B681A68DD
:10102C001E4B1B691B689A4216D11C4B9B691D49B0
:10103C00184603F0ADFB194B5B69002B04D0174B22
:10104C005B69012117489847144B1B69012215490C
:10105C00184602F072F91CE07B681A680F4B1B6A89
:10106C001B689A4215D10D4B9B6A0F49184603F029
:10107C008FFB0A4B5B6A002B04D0084B5B6A012187
:10108C0009489847054B1B6A01220749184602F08C
:10109C0054F900BF0837BD4680BD00BF00020020D8
:1010AC000C0200201C0200202C02002080B500AF96
:1010BC000448FFF787FE04490220FFF779FF00BFC1
:1010CC0080BD00BF1D1200084515000880B584B016
:1010DC0002AF204B1968FA1D3B46009313461E4A7B
:1010EC001E4800F0AFF80346002B29D0194B1968A5
:1010FC003A68184B194800F0F4F9194B1B781A464A
:10110C00184913469B0113449B0013440B44124A89
:10111C001846114640F205131A4603F0A7FC104B73
:10112C001B785A1C104B83FB02135910D317C91A86
:10113C000B469B000B44D11ACAB2094B1A7005E03E
:10114C00FB79002B02D0034B00221A6000BF08373A
:10115C00BD4680BD9C260020781C00209C220020CF
:10116C009A220020801D00206766666680B584B0D8
:10117C0000AF786007F10C031A460749786800F055
:10118C0025F9FB681A4604490220FFF7C9FE0346FD
:10119C0018461037BD4680BDA026002080B582B011
:1011AC0000AF7860164B1A78164B1B789A4221D0F8
:1011BC00144B1B781A4613469B0113449B00134493
:1011CC00114A134440F205121946786803F04EFC9C
:1011DC000C4B1B785A1C0D4B83FB02135910D31765
:1011EC00C91A0B469B000B44D11ACAB2054B1A7094
:1011FC00012300E0002318460837BD4680BD00BF20
:10120C009A22002099220020801D002067666666C5
:10121C0080B400AF094B1B68002B0BD0074B1B682D
:10122C00013B064A1360054B1B68002B02D1044B93
:10123C0000221A6000BFBD4680BC704720270020EA
:10124C009C26002080B58AB000AFF860B9607A6047
:10125C003B60002387F8273000233B6200233B626E
:10126C000CE0FA683B6A13441B78882B03D10123EA
:10127C0087F8273006E03B6A01333B623A6ABB6869
:10128C009A42EED397F8273083F00103DBB2002BA0
:10129C0001D0002386E03B6A0133FA6813441B78C3
:1012AC00FB773B6A0233FA6813441B78BB773B6AC3
:1012BC000333FA6813441B787B773B6A0433FA6870
:1012CC0013441B783B773B6A0533FA6813441B784D
:1012DC00FB763B6A0633FA6813441B78BB76BA7EFE
:1012EC003B6A13440933FA6813441B78892B01D0E9
:1012FC00002357E0BA7E3B6A13440A33BA689A4219
:10130C0001D200234EE03B6A0733FA681344BA7EDD
:10131C001146184600F04AF803463B83BA7E3B6AF6
:10132C0013440733FA6813441B781B021AB2B97EB4
:10133C003B6A0B440833F9680B441B781BB213430C
:10134C001BB2FB823A8BFB8A9A4204D03B68012287
:10135C001A70002326E07B68FA7F1A707B68BA7FCC
:10136C005A707B687A7F9A707B683A7FDA707B68F8
:10137C00FA7E1A717B68981D3B6A0733FA6813442E
:10138C00BA7E194603F072FB7B68BA7E5A713B68D1
:10139C0000221A70BA7E3B6A134403F10A023B6BBB
:1013AC001A60012318462837BD4680BD80B582B02F
:1013BC0000AF78600B46FB70FB7819467868FFF736
:1013CC009FF8034618460837BD4680BD80B588B0E7
:1013DC0000AFF860B9607A600023FB77FB7F5A1C82
:1013EC00FA771A46BB68134488221A70FB7F5A1C82
:1013FC00FA771A46BB681344FA6812781A70FB7FA6
:10140C005A1CFA771A46BB681344FA6852781A7059
:10141C00FB7F5A1CFA771A46BB681344FA68927819
:10142C001A70FB7F5A1CFA771A46BB681344FA6889
:10143C00D2781A70FB7F5A1CFA771A46BB68134491
:10144C00FA6812791A70FB7F5A1CFA771A46BB6835
:10145C001344FA6852791A700023BB610EE0FB7FCB
:10146C005A1CFA771A46BB681344F968BA690A44DD
:10147C00063212781A70BB690133BB61FB685B7969
:10148C001A46BB699342EADBFB689A1DFB685B79E1
:10149C0019461046FFF78AFF0346FB82FB8A1B0A9C
:1014AC009AB2FB7F591CF9771946BB680B44D2B230
:1014BC001A70FB7F5A1CFA771A46BB681344FA8AD7
:1014CC00D2B21A70FB7F5A1CFA771A46BB681344C7
:1014DC0089221A70FA7F7B681A6000BF2037BD46DC
:1014EC0080BD80B487B000AFF860B9607A603B60B3
:1014FC007A68BB689A4219D87B687B610CE07B697F
:10150C00FA681A4479697B68CB1AF9680B4412782B
:10151C001A707B6901337B617B69BA689A42EED899
:10152C00BA687B68D21A3B681A6000E000BF1C37AF
:10153C00BD4680BC7047000080B582B000AF7860BB
:10154C003960134B4FF4FA621A60124B1A683B68FD
:10155C001344802B09D9104BB9221049022003F0F7
:10156C00E7F90C4B00221A600EE00A4B1B680C4A80
:10157C0013443A687968184603F078FA054B1A68F0
:10158C003B681344034A13600837BD4680BD00BF57
:10159C00202700209C26002048540008785400087E
:1015AC009C22002080B500AF00F0ECF9FFF72FFB78
:1015BC00FFF78AFBFFF7C4FBFFF746FCFEF7CEFFF5
:1015CC00FFF782F8FFF772FDFEF7BAFDFFF77EFD1D
:1015DC00FFF790F8F8E780B400AF72B600BFFEE7F3
:1015EC0080B483B000AF0E4B9B690D4A43F00103EE
:1015FC0093610B4B9B6903F001037B607B68084B89
:10160C00DB69074A43F08053D361054BDB6903F078
:10161C0080533B603B6800BF0C37BD4680BC7047B5
:10162C000010024080B584B000AF78607B681B6806
:10163C000D4A934213D10D4BDB690C4A43F0020364
:10164C00D3610A4BDB6903F00203FB60FB680022E9
:10165C0000211D2000F0F3FA1D2000F00CFB00BF50
:10166C001037BD4680BD00BF000400400010024092
:10167C0080B58CB000AF786007F1200300221A60AF
:10168C005A609A60DA607B681B685F4A93423AD171
:10169C005E4B9B695D4A43F4804393615B4B9B6952
:1016AC0003F48043FB61FB69584B9B69574A43F039
:1016BC0004039361554B9B6903F00403BB61BB6945
:1016CC004FF400733B6202237B620323FB6207F13E
:1016DC00200319464E4800F09BFB4FF480633B629D
:1016EC0000237B620023BB6207F1200319464848A4
:1016FC0000F08EFB00220021252000F0A0FA25200E
:10170C0000F0B9FA7CE07B681B68424A934238D1FE
:10171C003E4BDB693D4A43F40033D3613B4BDB6901
:10172C0003F400337B617B69384B9B69374A43F088
:10173C0004039361354B9B6903F004033B613B69E4
:10174C0004233B6202237B620323FB6207F1200329
:10175C0019462F4800F05CFB08233B6200237B6298
:10176C000023BB6207F120031946294800F050FB07
:10177C0000220021262000F062FA262000F07BFADD
:10178C003EE07B681B68244A934239D11F4BDB69CE
:10179C001E4A43F48023D3611C4BDB6903F4802382
:1017AC00FB60FB68194B9B69184A43F00803936173
:1017BC00164B9B6903F00803BB60BB684FF4806356
:1017CC003B6202237B620323FB6207F12003194671
:1017DC00124800F01DFB4FF400633B6200237B6258
:1017EC000023BB6207F1200319460C4800F010FBE4
:1017FC0000220021272000F022FA272000F03BFADB
:10180C0000BF3037BD4680BD00380140001002409B
:10181C00000801400044004000480040000C01401A
:10182C0080B400AFFEE780B400AFFEE780B400AF39
:10183C00FEE780B400AFFEE780B400AFFEE780B4F3
:10184C0000AF00BFBD4680BC704780B400AF00BF86
:10185C00BD4680BC704780B400AF00BFBD4680BCA5
:10186C00704780B500AF00F0D3F800BF80BD00001A
:10187C0080B500AF024801F031F900BF80BD00BF58
:10188C00E000002080B500AF024801F07BFD00BFF6
:10189C0080BD00BF2801002080B500AF024801F0D8
:1018AC0071FD00BF80BD00BF7001002080B500AF8E
:1018BC00024801F067FD00BF80BD00BFB8010020E9
:1018CC0080B586B000AF7860144A154BD31A7B6193
:1018DC007B693B61134B1B68002B02D1114B124AE5
:1018EC001A60104B1A687B6813443A699A4207D203
:1018FC0003F082F803460C221A604FF0FF3309E024
:10190C00084B1B68FB60074B1A687B681344054A3D
:10191C001360FB6818461837BD4680BD0050002088
:10192C000004000024270020402F002080B400AFCA
:10193C0000BFBD4680BC7047FFF7F8FF0B480C4951
:10194C000C4A002302E0D458C4500433C4188C420F
:10195C00F9D3094A094C002301E013600432A24276
:10196C00FBD303F04FF8FFF71DFE7047000000207B
:10197C00E0020020105B0008E00200203C2F002059
:10198C00FEE7000080B500AF084B1B68074A43F028
:10199C0010031360032000F047F90F2000F008F843
:1019AC00FFF71EFE0023184680BD00BF002002403A
:1019BC0080B582B000AF7860124B1A68124B1B785E
:1019CC0019464FF47A73B3FBF1F3B2FBF3F31846F9
:1019DC0000F05FF90346002B01D001230EE07B6879
:1019EC000F2B0AD8002279684FF0FF3000F027F94E
:1019FC00064A7B681360002300E001231846083771
:101A0C00BD4680BD30020020380200203402002088
:101A1C0080B400AF054B1B781A46054B1B6813446A
:101A2C00034A136000BFBD4680BC704738020020DB
:101A3C002827002080B400AF024B1B681846BD4617
:101A4C0080BC70472827002080B584B000AF786038
:101A5C00FFF7F0FFB8607B68FB60FB68B3F1FF3FFA
:101A6C0005D00A4B1B781A46FB681344FB6000BF79
:101A7C00FFF7E0FF0246BB68D31AFA689A42F7D820
:101A8C0000BF00BF1037BD4680BD00BF380200202C
:101A9C0080B485B000AF78607B6803F00703FB600F
:101AAC000C4BDB68BB60BA684FF6FF031340BB609E
:101ABC00FB681A02BB68134343F0BF6343F4003363
:101ACC00BB60044ABB68D36000BF1437BD4680BC02
:101ADC00704700BF00ED00E080B400AF044BDB6842
:101AEC001B0A03F007031846BD4680BC704700BFB5
:101AFC0000ED00E080B483B000AF0346FB7197F9B2
:101B0C000730002B0BDBFB7903F01F02064997F91A
:101B1C0007305B09012000FA02F241F8232000BFD4
:101B2C000C37BD4680BC704700E100E080B483B048
:101B3C0000AF03463960FB7197F90730002B0ADBC5
:101B4C003B68DAB20C4997F907301201D2B20B4458
:101B5C0083F800230AE03B68DAB20849FB7903F00A
:101B6C000F03043B1201D2B20B441A7600BF0C37A0
:101B7C00BD4680BC704700BF00E100E000ED00E016
:101B8C0080B489B000AFF860B9607A60FB6803F08C
:101B9C000703FB61FB69C3F10703042B28BF042374
:101BAC00BB61FB690433062B02D9FB69033B00E0E4
:101BBC0000237B614FF0FF32BB6902FA03F3DA4377
:101BCC00BB681A407B699A404FF0FF317B6901FA80
:101BDC0003F3D9437B680B40134318462437BD46A7
:101BEC0080BC704780B582B000AF78607B68013BE9
:101BFC00B3F1807F01D301230FE00A4A7B68013BDC
:101C0C0053600F214FF0FF30FFF790FF054B002280
:101C1C009A60044B07221A60002318460837BD4609
:101C2C0080BD00BF10E000E080B582B000AF7860EE
:101C3C007868FFF72DFF00BF0837BD4680BD80B523
:101C4C0086B000AF0346B9607A60FB7300237B61FA
:101C5C00FFF742FF78617A68B9687869FFF790FFFF
:101C6C00024697F90F3011461846FFF75FFF00BF89
:101C7C001837BD4680BD80B582B000AF0346FB71FE
:101C8C0097F907301846FFF735FF00BF0837BD46F8
:101C9C0080BD80B582B000AF78607868FFF7A2FF96
:101CAC00034618460837BD4680BD80B485B000AFEA
:101CBC0078600023FB737B6893F82130DBB2022B36
:101CCC0008D07B6804229A637B68002283F820206A
:101CDC00012320E07B681B681A687B681B6822F074
:101CEC000E021A607B681B681A687B681B6822F0FE
:101CFC0001021A607B681A6C7B68DB6B012101FAAC
:101D0C0002F25A607B68012283F821207B68002252
:101D1C0083F82020FB7B18461437BD4680BC7047E7
:101D2C0080B584B000AF78600023FB737B6893F8B8
:101D3C002130DBB2022B05D07B6804229A6301238D
:101D4C00FB7351E07B681B681A687B681B6822F088
:101D5C000E021A607B681B681A687B681B6822F08D
:101D6C0001021A607B681B68224A934229D07B6867
:101D7C001B68214A934222D07B681B681F4A9342FE
:101D8C001AD07B681B681E4A934212D07B681B6872
:101D9C001C4A93420AD07B681B681B4A934202D1AF
:101DAC004FF480130EE04FF080730BE04FF4803350
:101DBC0008E04FF4805305E04FF4807302E01023E9
:101DCC0000E00123114A53607B68012283F8212033
:101DDC007B68002283F820207B685B6B002B03D090
:101DEC007B685B6B78689847FB7B18461037BD4661
:101DFC0080BD00BF080002401C00024030000240C1
:101E0C0044000240580002406C00024000000240B6
:101E1C0080B48BB000AF7860396000237B62002304
:101E2C003B6269E101227B6A02FA03F3FB613B68C6
:101E3C001B68FA691340BB61BA69FB699A4240F0AE
:101E4C0058813B685B689A4A93425ED0984A9342A9
:101E5C0075D8984A934258D0964A93426FD8964A6E
:101E6C00934252D0944A934269D8944A93424CD0AC
:101E7C00924A934263D8924A934246D0904A9342F4
:101E8C005DD8122B2AD8122B59D801A252F823F064
:101E9C00171F0008F11E0008031F0008451F00084B
:101EAC004B1F00084B1F00084B1F00084B1F00085E
:101EBC004B1F00084B1F00084B1F00084B1F00084E
:101ECC004B1F00084B1F00084B1F00084B1F00083E
:101EDC004B1F0008F91E00080D1F0008794A934299
:101EEC0013D02CE03B68DB683B6229E03B68DB6885
:101EFC0004333B6224E03B68DB6808333B621FE041
:101F0C003B68DB680C333B621AE03B689B68002B38
:101F1C0002D104233B6213E03B689B68012B05D183
:101F2C0008233B627B68FA691A6109E008233B626B
:101F3C007B68FA695A6103E000233B6200E000BF52
:101F4C00BB69FF2B01D87B6801E07B6804337B61A4
:101F5C00BB69FF2B02D87B6A9B0002E07B6A083BC3
:101F6C009B003B617B691A680F213B6901FA03F303
:101F7C00DB431A40396A3B6901FA03F31A437B6964
:101F8C001A603B685B6803F08053002B00F0B18053
:101F9C004D4B9B694C4A43F0010393614A4B9B693F
:101FAC0003F00103BB60BB68484A7B6A9B080233A1
:101FBC0052F82330FB607B6A03F003039B000F2273
:101FCC0002FA03F3DB43FA681340FB607B68404A78
:101FDC00934213D07B683F4A93420DD07B683E4AB4
:101FEC00934207D07B683D4A934201D1032306E01C
:101FFC00042304E0022302E0012300E000237A6AB8
:10200C0002F0030292009340FA681343FB602F49DD
:10201C007B6A9B080233FA6841F823203B685B68B3
:10202C0003F48013002B06D02D4B9A682C49BB6906
:10203C0013438B6006E02A4B9A68BB69DB43284943
:10204C0013408B603B685B6803F40013002B06D0D5
:10205C00234BDA682249BB691343CB6006E0204B63
:10206C00DA68BB69DB431E491340CB603B685B6895
:10207C0003F40033002B06D0194B5A681849BB697E
:10208C0013434B6006E0164B5A68BB69DB4314499B
:10209C0013404B603B685B6803F48033002B21D00A
:1020AC000F4B1A680E49BB6913430B6021E000BF4C
:1020BC00000032100000311000002210000021102E
:1020CC00000012100000111000100240000001402E
:1020DC0000080140000C01400010014000140140B8
:1020EC00000401400B4B1A68BB69DB4309491340E0
:1020FC000B607B6A01337B623B681A687B6A22FA4D
:10210C0003F3002B7FF48EAE00BF00BF2C37BD460F
:10211C0080BC70470004014080B485B000AF78608B
:10212C000B467B807B689A687B881340002B02D01F
:10213C000123FB7301E00023FB73FB7B1846143770
:10214C00BD4680BC704780B483B000AF78600B464E
:10215C007B8013467B707B78002B03D07A887B685E
:10216C001A6103E07B881A047B681A6100BF0C3784
:10217C00BD4680BC7047000080B586B000AF78606B
:10218C007B68002B01D1012372E27B681B6803F092
:10219C000103002B00F08780924B5B6803F00C036B
:1021AC00042B0CD08F4B5B6803F00C03082B12D163
:1021BC008C4B5B6803F48033B3F5803F0BD1894BB8
:1021CC001B6803F40033002B6CD07B685B68002B1E
:1021DC0068D101234CE27B685B68B3F5803F06D184
:1021EC00804B1B687F4A43F4803313602EE07B687E
:1021FC005B68002B0CD17B4B1B687A4A23F4803331
:10220C001360784B1B68774A23F4802313601DE01E
:10221C007B685B68B3F5A02F0CD1724B1B68714ABD
:10222C0043F4802313606F4B1B686E4A43F4803376
:10223C0013600BE06B4B1B686A4A23F4803313600A
:10224C00684B1B68674A23F4802313607B685B68C8
:10225C00002B13D0FFF7EEFB386108E0FFF7EAFB29
:10226C0002463B69D31A642B01D9032300E25D4B70
:10227C001B6803F40033002BF0D014E0FFF7DAFBFB
:10228C00386108E0FFF7D6FB02463B69D31A642B92
:10229C0001D90323ECE1534B1B6803F40033002BEF
:1022AC00F0D100E000BF7B681B6803F00203002B39
:1022BC0063D04C4B5B6803F00C03002B0BD0494BE9
:1022CC005B6803F00C03082B1CD1464B5B6803F4D2
:1022DC008033002B16D1434B1B6803F00203002BF9
:1022EC0005D07B681B69012B01D00123C0E13D4B5C
:1022FC001B6823F0F8027B685B69DB0039491343E8
:10230C000B603AE07B681B69002B20D0364B012216
:10231C001A60FFF78FFB386108E0FFF78BFB024672
:10232C003B69D31A022B01D90323A1E12D4B1B6866
:10233C0003F00203002BF0D02A4B1B6823F0F802A9
:10234C007B685B69DB00274913430B6015E0264B68
:10235C0000221A60FFF76EFB386108E0FFF76AFB9A
:10236C0002463B69D31A022B01D9032380E11D4B92
:10237C001B6803F00203002BF0D17B681B6803F091
:10238C000803002B3AD07B689B69002B19D0174BA4
:10239C0001221A60FFF74EFB386108E0FFF74AFB99
:1023AC0002463B69D31A022B01D9032360E10D4B82
:1023BC005B6A03F00203002BF0D0012000F0CEFA90
:1023CC001CE00A4B00221A60FFF734FB38610FE067
:1023DC00FFF730FB02463B69D31A022B08D90323C3
:1023EC0046E100BF0010024000004242800442421D
:1023FC00924B5B6A03F00203002BE9D17B681B68EC
:10240C0003F00403002B00F0A6800023FB758B4B1C
:10241C00DB6903F08053002B0DD1884BDB69874AB5
:10242C0043F08053D361854BDB6903F08053BB6071
:10243C00BB680123FB75824B1B6803F48073002B74
:10244C0018D17F4B1B687E4A43F480731360FFF7EF
:10245C00F1FA386108E0FFF7EDFA02463B69D31A4E
:10246C00642B01D9032303E1754B1B6803F48073C0
:10247C00002BF0D07B68DB68012B06D16F4B1B6AFD
:10248C006E4A43F0010313622DE07B68DB68002B7E
:10249C000CD16A4B1B6A694A23F001031362674B28
:1024AC001B6A664A23F0040313621CE07B68DB683A
:1024BC00052B0CD1614B1B6A604A43F00403136279
:1024CC005E4B1B6A5D4A43F0010313620BE05B4BEE
:1024DC001B6A5A4A23F001031362584B1B6A574A72
:1024EC0023F0040313627B68DB68002B15D0FFF725
:1024FC00A1FA38610AE0FFF79DFA02463B69D31A4C
:10250C0041F28832934201D90323B1E04B4B1B6A51
:10251C0003F00203002BEED014E0FFF78BFA3861C6
:10252C000AE0FFF787FA02463B69D31A41F2883278
:10253C00934201D903239BE0404B1B6A03F0020337
:10254C00002BEED1FB7D012B05D13C4BDB693B4ACB
:10255C0023F08053D3617B68DB69002B00F087800C
:10256C00364B5B6803F00C03082B61D07B68DB698E
:10257C00022B46D1334B00221A60FFF75BFA38610D
:10258C0008E0FFF757FA02463B69D31A022B01D930
:10259C0003236DE0294B1B6803F00073002BF0D173
:1025AC007B681B6AB3F5803F08D1244B5B6823F42E
:1025BC0000327B689B68214913434B601F4B5B685F
:1025CC0023F474127B68196A7B685B6A0B431B49A2
:1025DC0013434B601B4B01221A60FFF72BFA386137
:1025EC0008E0FFF727FA02463B69D31A022B01D900
:1025FC0003233DE0114B1B6803F00073002BF0D05C
:10260C0035E0104B00221A60FFF714FA386108E02D
:10261C00FFF710FA02463B69D31A022B01D90323A8
:10262C0026E0064B1B6803F00073002BF0D11EE074
:10263C007B68DB69012B07D1012319E000100240F4
:10264C0000700040600042420B4B5B68FB60FB6813
:10265C0003F480327B681B6A9A4206D1FB6803F450
:10266C0070127B685B6A9A4201D0012300E0002360
:10267C0018461837BD4680BD0010024080B584B0A6
:10268C0000AF786039607B68002B01D10123D0E06A
:10269C006A4B1B6803F007033A689A4210D9674BE0
:1026AC001B6823F0070265493B6813430B60634BBF
:1026BC001B6803F007033A689A4201D00123B8E083
:1026CC007B681B6803F00203002B20D07B681B681F
:1026DC0003F00403002B05D0594B5B68584A43F4B4
:1026EC00E06353607B681B6803F00803002B05D084
:1026FC00534B5B68524A43F460535360504B5B68D6
:10270C0023F0F0027B689B684D4913434B607B6858
:10271C001B6803F00103002B40D07B685B68012B26
:10272C0007D1474B1B6803F40033002B15D1012351
:10273C007FE07B685B68022B07D1414B1B6803F081
:10274C000073002B09D1012373E03D4B1B6803F090
:10275C000203002B01D101236BE0394B5B6823F0A2
:10276C0003027B685B68364913434B60FFF762F9E1
:10277C00F8600AE0FFF75EF90246FB68D31A41F2F3
:10278C008832934201D9032353E02D4B5B6803F04D
:10279C000C027B685B689B009A42EBD1274B1B6851
:1027AC0003F007033A689A4210D2244B1B6823F0BB
:1027BC00070222493B6813430B60204B1B6803F054
:1027CC0007033A689A4201D0012332E07B681B6808
:1027DC0003F00403002B08D0194B5B6823F4E06270
:1027EC007B68DB68164913434B607B681B6803F0FE
:1027FC000803002B09D0124B5B6823F460527B68F2
:10280C001B69DB000E4913434B6000F021F80246B4
:10281C000B4B5B681B0903F00F030A49CB5C22FAD4
:10282C0003F3094A1360094B1B681846FFF7C0F8FD
:10283C00002318461037BD4680BD00BF0020024063
:10284C0000100240985A0008300200203402002088
:10285C0080B487B000AF0023FB600023BB60002373
:10286C007B6100237B6000233B611E4B5B68FB603C
:10287C00FB6803F00C03042B02D0082B03D027E0D9
:10288C00194B3B6127E0FB689B0C03F00F03174AC5
:10289C00D35C7B60FB6803F48033002B10D0114BAE
:1028AC005B685B0C03F00103114AD35CBB607B6873
:1028BC000D4A03FB02F2BB68B2FBF3F37B6104E04D
:1028CC007B680C4A02FB03F37B617B693B6102E092
:1028DC00054B3B6100BF3B6918461C37BD4680BCAD
:1028EC00704700BF0010024000127A00B05A000876
:1028FC00C05A000800093D0080B400AF024B1B68B1
:10290C001846BD4680BC70473002002080B500AF31
:10291C00FFF7F2FF0246054B5B681B0A03F0070347
:10292C000349CB5C22FA03F3184680BD0010024029
:10293C00A85A000880B500AFFFF7DEFF0246054B32
:10294C005B68DB0A03F007030349CB5C22FA03F351
:10295C00184680BD00100240A85A000880B485B00B
:10296C0000AF78600A4B1B680A4AA2FB03235B0A80
:10297C007A6802FB03F3FB6000BFFB685A1EFA6027
:10298C00002BF9D100BF00BF1437BD4680BC704787
:10299C0030020020D34D621080B582B000AF786059
:1029AC007B68002B01D1012341E07B6893F83D301B
:1029BC00DBB2002B06D17B68002283F83C207868C0
:1029CC00FEF730FE7B68022283F83D207B681A6894
:1029DC007B6804331946104600F074FA7B680122B8
:1029EC0083F846207B68012283F83E207B68012215
:1029FC0083F83F207B68012283F840207B6801220A
:102A0C0083F841207B68012283F842207B680122F5
:102A1C0083F843207B68012283F844207B680122E1
:102A2C0083F845207B68012283F83D20002318465B
:102A3C000837BD4680BD000080B485B000AF78601B
:102A4C007B6893F83D30DBB2012B01D001233AE0D7
:102A5C007B68022283F83D207B681B68DA687B6800
:102A6C001B6842F00102DA607B681B68184A9342CB
:102A7C000ED07B681B68B3F1804F09D07B681B6854
:102A8C00144A934204D07B681B68134A934211D1B9
:102A9C007B681B689B6803F00703FB60FB68062BD5
:102AAC0010D07B681B681A687B681B6842F00102B7
:102ABC001A6007E07B681B681A687B681B6842F029
:102ACC0001021A60002318461437BD4680BC7047BB
:102ADC00002C0140000400400008004080B582B08A
:102AEC0000AF78607B681B681B6903F00203022B44
:102AFC0022D17B681B68DB6803F00203022B1BD11D
:102B0C007B681B686FF002021A617B6801221A77DE
:102B1C007B681B689B6903F00303002B03D0786868
:102B2C0000F0B4F905E0786800F0A7F9786800F0D7
:102B3C00B6F97B6800221A777B681B681B6903F067
:102B4C000403042B22D17B681B68DB6803F00403AD
:102B5C00042B1BD17B681B686FF004021A617B6825
:102B6C0002221A777B681B689B6903F44073002B65
:102B7C0003D0786800F08AF905E0786800F07DF9F8
:102B8C00786800F08CF97B6800221A777B681B68E8
:102B9C001B6903F00803082B22D17B681B68DB68D8
:102BAC0003F00803082B1BD17B681B686FF008022D
:102BBC001A617B6804221A777B681B68DB6903F057
:102BCC000303002B03D0786800F060F905E0786807
:102BDC0000F053F9786800F062F97B6800221A77EC
:102BEC007B681B681B6903F01003102B22D17B68D8
:102BFC001B68DB6803F01003102B1BD17B681B6870
:102C0C006FF010021A617B6808221A777B681B68C8
:102C1C00DB6903F44073002B03D0786800F036F9BD
:102C2C0005E0786800F029F9786800F038F97B68DD
:102C3C0000221A777B681B681B6903F00103012BC8
:102C4C000ED17B681B68DB6803F00103012B07D1F5
:102C5C007B681B686FF001021A617868FEF7D0F888
:102C6C007B681B681B6903F08003802B0ED17B688B
:102C7C001B68DB6803F08003802B07D17B681B6823
:102C8C006FF080021A61786800F07BFA7B681B6831
:102C9C001B6903F04003402B0ED17B681B68DB687B
:102CAC0003F04003402B07D17B681B686FF0400298
:102CBC001A61786800F0FCF87B681B681B6903F0EC
:102CCC002003202B0ED17B681B68DB6803F02003EC
:102CDC00202B07D17B681B686FF020021A61786883
:102CEC0000F046FA00BF0837BD4680BD80B584B001
:102CFC0000AF786039600023FB737B6893F83C303D
:102D0C00012B01D10223B4E07B68012283F83C2023
:102D1C007B68022283F83D207B681B689B68BB6044
:102D2C00BB6823F07703BB60BB6823F47F43BB60B5
:102D3C007B681B68BA689A603B681B68B3F5005FD8
:102D4C003ED0B3F5005F00F28780B3F5805F00F0F2
:102D5C008680B3F5805F7FD8702B1AD0702B7BD810
:102D6C00602B50D0602B77D8502B3CD0502B73D885
:102D7C00402B58D0402B6FD8302B64D0302B6BD8D5
:102D8C00202B60D0202B67D8002B5CD0102B5AD076
:102D9C0062E07B6818683B6899683B685A683B68D6
:102DAC00DB6800F068F97B681B689B68BB60BB68DC
:102DBC0043F07703BB607B681B68BA689A604FE08E
:102DCC007B6818683B6899683B685A683B68DB68A5
:102DDC0000F051F97B681B689A687B681B6842F4A9
:102DEC0080429A603CE07B6818683B6859683B6895
:102DFC00DB681A4600F0C8F87B681B68502118463F
:102E0C0000F01FF92CE07B6818683B6859683B6838
:102E1C00DB681A4600F0E6F87B681B6860211846F0
:102E2C0000F00FF91CE07B6818683B6859683B6838
:102E3C00DB681A4600F0A8F87B681B68402118462E
:102E4C0000F0FFF80CE07B681A683B681B681946B9
:102E5C00104600F0F6F803E00123FB7300E000BF1E
:102E6C007B68012283F83D207B68002283F83C209C
:102E7C00FB7B18461037BD4680BD80B483B000AFD5
:102E8C00786000BF0C37BD4680BC704780B483B0FF
:102E9C0000AF786000BF0C37BD4680BC704780B473
:102EAC0083B000AF786000BF0C37BD4680BC704764
:102EBC0080B483B000AF786000BF0C37BD4680BCD7
:102ECC007047000080B485B000AF786039607B68D3
:102EDC001B68FB607B68294A93420BD07B68B3F17B
:102EEC00804F07D07B68264A934203D07B68254AE3
:102EFC00934208D1FB6823F07003FB603B685B686E
:102F0C00FA681343FB607B681C4A93420BD07B68C6
:102F1C00B3F1804F07D07B68194A934203D07B688A
:102F2C00184A934208D1FB6823F44073FB603B685A
:102F3C00DB68FA681343FB60FB6823F080023B6894
:102F4C005B691343FB607B68FA681A603B689A689C
:102F5C007B68DA623B681A687B689A627B68074A0E
:102F6C00934203D13B681A697B681A637B68012220
:102F7C005A6100BF1437BD4680BC7047002C01401D
:102F8C00000400400008004080B487B000AFF86037
:102F9C00B9607A60FB681B6A7B61FB681B6A23F073
:102FAC000102FB681A62FB689B693B613B6923F079
:102FBC00F0033B617B681B013A6913433B617B69FE
:102FCC0023F00A037B617A69BB6813437B61FB685E
:102FDC003A699A61FB687A691A6200BF1C37BD4670
:102FEC0080BC704780B487B000AFF860B9607A607D
:102FFC00FB681B6A7B61FB681B6A23F01002FB6891
:10300C001A62FB689B693B613B6923F470433B612B
:10301C007B681B033A6913433B617B6923F0A00374
:10302C007B61BB681B017A6913437B61FB683A695E
:10303C009A61FB687A691A6200BF1C37BD4680BC76
:10304C00704780B485B000AF786039607B689B684E
:10305C00FB60FB6823F07003FB603A68FB6813436A
:10306C0043F00703FB607B68FA689A6000BF143773
:10307C00BD4680BC704780B487B000AFF860B960C3
:10308C007A603B60FB689B687B617B6923F47F43C0
:10309C007B613B681A027B681A43BB6813437A69ED
:1030AC0013437B61FB687A699A6000BF1C37BD468D
:1030BC0080BC704780B485B000AF786039607B68A5
:1030CC0093F83C30012B01D1022346E07B680122AE
:1030DC0083F83C207B68022283F83D207B681B68C8
:1030EC005B68FB607B681B689B68BB60FB6823F0BC
:1030FC007003FB603B681B68FA681343FB607B68DA
:10310C001B68FA685A607B681B68164A93420ED09B
:10311C007B681B68B3F1804F09D07B681B68124A2F
:10312C00934204D07B681B68104A93420CD1BB6855
:10313C0023F08003BB603B685B68BA681343BB60D9
:10314C007B681B68BA689A607B68012283F83D2013
:10315C007B68002283F83C20002318461437BD46B8
:10316C0080BC7047002C0140000400400008004067
:10317C0080B483B000AF786000BF0C37BD4680BC14
:10318C00704780B483B000AF786000BF0C37BD4689
:10319C0080BC704780B582B000AF78607B68002B34
:1031AC0001D1012342E07B6893F84130DBB2002B64
:1031BC0006D17B68002283F840207868FEF758FA25
:1031CC007B68242283F841207B681B68DA687B6863
:1031DC001B6822F40052DA60786800F0C5FD7B6849
:1031EC001B681A697B681B6822F490421A617B6821
:1031FC001B685A697B681B6822F02A025A617B683B
:10320C001B68DA687B681B6842F40052DA607B68E2
:10321C0000225A647B68202283F841207B6820229C
:10322C0083F842207B6800225A6300231846083733
:10323C00BD4680BD80B58AB002AFF860B9603B6016
:10324C001346FB8000237B61FB6893F84130DBB2B3
:10325C00202B6DD1BB68002B02D0FB88002B01D139
:10326C00012366E0FB6800225A64FB68212283F884
:10327C004120FEF7DFFB7861FB68FA889A84FB68D3
:10328C00FA88DA84FB689B68B3F5805F08D1FB6829
:10329C001B69002B04D10023FB61BB68BB6103E0FD
:1032AC00BB68FB610023BB612AE03B6800937B6930
:1032BC0000228021F86800F014FB0346002B01D09B
:1032CC00032336E0FB69002B0BD1BB691B881A4624
:1032DC00FB681B68C2F308025A60BB690233BB610E
:1032EC0007E0FB691A78FB681B685A60FB690133BD
:1032FC00FB61FB68DB8C9BB2013B9AB2FB68DA8406
:10330C00FB68DB8C9BB2002BCFD13B6800937B69B5
:10331C0000224021F86800F0E4FA0346002B01D0AB
:10332C00032306E0FB68202283F84120002300E001
:10333C00022318462037BD4680BD80B584B000AF4F
:10334C00F860B9601346FB80FB6893F84230DBB23F
:10335C00202B12D1BB68002B02D0FB88002B01D193
:10336C0001230BE0FB6800221A63FB881A46B9683C
:10337C00F86800F024FB034600E0022318461037DF
:10338C00BD4680BD80B5BAB000AF78607B681B6865
:10339C001B68C7F8E4307B681B68DB68C7F8E03053
:1033AC007B681B685B69C7F8DC300023C7F8D83032
:1033BC000023C7F8D430D7F8E43003F00F03C7F874
:1033CC00D830D7F8D830002B0FD1D7F8E43003F031
:1033DC002003002B09D0D7F8E03003F02003002B9A
:1033EC0003D0786800F001FC5BE2D7F8D830002BF2
:1033FC0000F0DE80D7F8DC3003F00103002B06D19F
:10340C00D7F8E03003F49073002B00F0D180D7F89C
:10341C00E43003F00103002B0BD0D7F8E03003F4B9
:10342C008073002B05D07B685B6C43F001027B68DA
:10343C005A64D7F8E43003F00403002B0BD0D7F810
:10344C00DC3003F00103002B05D07B685B6C43F090
:10345C0002027B685A64D7F8E43003F00203002BB5
:10346C000BD0D7F8DC3003F00103002B05D07B68C0
:10347C005B6C43F004027B685A64D7F8E43003F0C9
:10348C000803002B11D0D7F8E03003F02003002BF9
:10349C0005D1D7F8DC3003F00103002B05D07B6895
:1034AC005B6C43F008027B685A647B685B6C002B96
:1034BC0000F0F281D7F8E43003F02003002B08D0A1
:1034CC00D7F8E03003F02003002B02D0786800F02E
:1034DC008CFB7B681B685B6903F04003002B14BFFB
:1034EC0001230023DBB2C7F8D4307B685B6C03F09C
:1034FC000803002B03D1D7F8D430002B4FD07868B9
:10350C0000F096FA7B681B685B6903F04003002BA4
:10351C0041D07B681B681433C7F89C30D7F89C30BB
:10352C0053E8003FC7F89830D7F8983023F04003A1
:10353C00C7F8D0307B681B681433D7F8D020C7F895
:10354C00A820C7F8A430D7F8A410D7F8A82041E8D1
:10355C000023C7F8A030D7F8A030002BD9D17B6856
:10356C00DB6B002B13D07B68DB6B7E4A5A637B686A
:10357C00DB6B1846FEF7D4FB0346002B16D07B689A
:10358C00DB6B5B6B7A68D26B104698470EE0786801
:10359C0000F093F90AE0786800F08FF906E078689B
:1035AC0000F08BF97B6800225A6475E100BF73E16F
:1035BC007B681B6B012B40F04F81D7F8E43003F094
:1035CC001003002B00F04881D7F8E03003F0100313
:1035DC00002B00F041810023BB607B681B681B68DB
:1035EC00BB607B681B685B68BB60BB687B681B68E7
:1035FC005B6903F04003002B00F0B6807B68DB6B4B
:10360C001B685B68A7F8BE30B7F8BE30002B00F023
:10361C0045817B689B8DB7F8BE209A4280F03E8135
:10362C007B68B7F8BE20DA857B68DB6B9B69202B47
:10363C0000F088807B681B680C33C7F88830D7F89B
:10364C00883053E8003FC7F88430D7F8843023F42F
:10365C008073C7F8B8307B681B680C33D7F8B82078
:10366C00C7F89420C7F89030D7F89010D7F894206A
:10367C0041E80023C7F88C30D7F88C30002BD9D117
:10368C007B681B6814337B677B6F53E8003F3B6799
:10369C003B6F23F00103C7F8B4307B681B6814330D
:1036AC00D7F8B420C7F88020FB67F96FD7F88020D3
:1036BC0041E80023BB67BB6F002BE1D17B681B6823
:1036CC0014333B663B6E53E8003FFB65FB6D23F008
:1036DC004003C7F8B0307B681B681433D7F8B020B0
:1036EC00FA66BB66B96EFA6E41E800237B667B6EA8
:1036FC00002BE3D17B68202283F842207B680022D8
:10370C001A637B681B680C33FB64FB6C53E8003F4B
:10371C00BB64BB6C23F01003C7F8AC307B681B6830
:10372C000C33D7F8AC20BA657B65796DBA6D41E87E
:10373C0000233B653B6D002BE3D17B68DB6B1846AC
:10374C00FEF7B3FA7B6802225A637B689A8D7B681A
:10375C00DB8D9BB2D31A9BB21946786800F0B6F891
:10376C009CE000BF013B00087B689A8D7B68DB8D79
:10377C009BB2D31AA7F8CE307B68DB8D9BB2002BA3
:10378C0000F08E80B7F8CE30002B00F089807B687B
:10379C001B680C33BB63BB6B53E8003F7B637B6BD9
:1037AC0023F49073C7F8C8307B681B680C33D7F8C8
:1037BC00C8207A643B64396C7A6C41E80023FB6363
:1037CC00FB6B002BE3D17B681B6814337B627B6A39
:1037DC0053E8003F3B623B6A23F00103C7F8C43057
:1037EC007B681B681433D7F8C4203A63FB62F96A10
:1037FC003A6B41E80023BB62BB6A002BE3D17B68C8
:10380C00202283F842207B6800221A637B681B68A5
:10381C000C333B613B6953E8003FFB60FB6823F0D2
:10382C001003C7F8C0307B681B680C33D7F8C02076
:10383C00FA61BB61B969FA6941E800237B617B6974
:10384C00002BE3D17B6802225A63B7F8CE301946BD
:10385C00786800F03BF823E0D7F8E43003F08003FD
:10386C00002B09D0D7F8E03003F08003002B03D0F5
:10387C00786800F053F914E0D7F8E43003F0400313
:10388C00002B0ED0D7F8E03003F04003002B08D00B
:10389C00786800F092F904E000BF02E000BF00E09D
:1038AC0000BFE837BD4680BD80B483B000AF786000
:1038BC0000BF0C37BD4680BC704780B483B000AFEE
:1038CC00786000BF0C37BD4680BC704780B483B0B5
:1038DC0000AF78600B467B8000BF0C37BD4680BCC8
:1038EC00704780B590B000AFF860B9603B6013468C
:1038FC00FB7150E0BB6CB3F1FF3F4CD0BB6C002BA9
:10390C0007D0FEF797F802463B68D31ABA6C9A4276
:10391C0041D2FB681B680C33BB62BB6A53E8003FA7
:10392C007B627B6A23F4D073FB63FB681B680C33EC
:10393C00FA6B7A633B63396B7A6B41E80023FB6269
:10394C00FB6A002BE5D1FB681B6814337B617B6938
:10395C0053E8003F3B613B6923F00103BB63FB6809
:10396C001B681433BA6B3A62FB61F9693A6A41E835
:10397C000023BB61BB69002BE5D1FB68202283F8D7
:10398C004120FB68202283F84220FB68002283F848
:10399C00402003230FE0FB681B681A68BB681340C8
:1039AC00BA689A420CBF01230023DBB21A46FB799A
:1039BC009A429FD0002318464037BD4680BD80B444
:1039CC0085B000AFF860B9601346FB80FB68BA683D
:1039DC009A62FB68FA889A85FB68FA88DA85FB6834
:1039EC0000225A64FB68222283F84220FB681B6980
:1039FC00002B07D0FB681B68DA68FB681B6842F475
:103A0C008072DA60FB681B685A69FB681B6842F0BD
:103A1C0001025A61FB681B68DA68FB681B6842F09C
:103A2C002002DA60002318461437BD4680BC70476C
:103A3C0080B495B000AF78607B681B680C337B63F7
:103A4C007B6B53E8003F3B633B6B23F49073FB644D
:103A5C007B681B680C33FA6C3A64FB63F96B3A6C49
:103A6C0041E80023BB63BB6B002BE5D17B681B6873
:103A7C0014333B623B6A53E8003FFB61FB6923F064
:103A8C000103BB647B681B681433BA6CFA62BB62BB
:103A9C00B96AFA6A41E800237B627B6A002BE5D1A4
:103AAC007B681B6B012B19D17B681B680C33FB608B
:103ABC00FB6853E8003FBB60BB6823F010037B64DA
:103ACC007B681B680C337A6CBA617B617969BA6963
:103ADC0041E800233B613B69002BE5D17B68202248
:103AEC0083F842207B6800221A6300BF5437BD461E
:103AFC0080BC704780B584B000AF78607B685B6A2F
:103B0C00FB60FB680022DA85FB680022DA84F86827
:103B1C00FFF7D3FE00BF1037BD4680BD80B485B023
:103B2C0000AF78607B6893F84130DBB2212B3ED13B
:103B3C007B689B68B3F5805F14D17B681B69002B95
:103B4C0010D17B681B6AFB60FB681B881A467B687C
:103B5C001B68C2F308025A607B681B6A9A1C7B685C
:103B6C001A6208E07B681B6A591C7A6811621A7821
:103B7C007B681B685A607B68DB8C9BB2013B9BB2F9
:103B8C007A681946D184002B0FD17B681B68DA68E0
:103B9C007B681B6822F08002DA607B681B68DA683D
:103BAC007B681B6842F04002DA60002300E00223CD
:103BBC0018461437BD4680BC704780B582B000AF44
:103BCC0078607B681B68DA687B681B6822F04002AF
:103BDC00DA607B68202283F841207868FFF764FE66
:103BEC00002318460837BD4680BD80B58CB000AFA9
:103BFC0078607B6893F84230DBB2222B40F0AE80C9
:103C0C007B689B68B3F5805F17D17B681B69002BC1
:103C1C0013D10023FB627B689B6ABB627B681B68C9
:103C2C005B689BB2C3F308039AB2BB6A1A807B68C9
:103C3C009B6A9A1C7B689A6226E07B689B6AFB6293
:103C4C000023BB627B689B68B3F5805F07D07B6801
:103C5C009B68002B0AD17B681B69002B06D17B6803
:103C6C001B685B68DAB2FB6A1A7008E07B681B6839
:103C7C005B68DBB203F07F03DAB2FB6A1A707B6815
:103C8C009B6A5A1C7B689A627B68DB8D9BB2013BFA
:103C9C009BB27A681946D185002B5DD17B681B6875
:103CAC00DA687B681B6822F02002DA607B681B688C
:103CBC00DA687B681B6822F48072DA607B681B68A8
:103CCC005A697B681B6822F001025A617B682022CA
:103CDC0083F842207B6800225A637B681B6B012BA4
:103CEC0035D17B6800221A637B681B680C337B61BF
:103CFC007B6953E8003F3B613B6923F010037B6217
:103D0C007B681B680C337A6A3A62FB61F9693A6A20
:103D1C0041E80023BB61BB69002BE5D17B681B68C4
:103D2C001B6803F01003102B0AD10023FB607B6887
:103D3C001B681B68FB607B681B685B68FB60FB682F
:103D4C007B689B8D19467868FFF7C0FD02E07868A8
:103D5C00FDF742F9002302E0002300E0022318469D
:103D6C003037BD4680BD000080B584B000AF7860B0
:103D7C007B681B681B6923F440517B68DA687B689D
:103D8C001B680A431A617B689A687B681B691A4333
:103D9C007B685B691343BB607B681B68DB6823F43F
:103DAC00B05323F00C037A681268B9680B43D360E4
:103DBC007B681B685B6923F440717B689A697B683C
:103DCC001B680A435A617B681B682C4A934203D1D7
:103DDC00FEF7B0FDF86002E0FEF798FDF860FA68B7
:103DEC0013469B0013449A001A447B685B689B0043
:103DFC00B2FBF3F3224AA2FB03235B091901FA6815
:103E0C0013469B0013449A001A447B685B689B0022
:103E1C00B2FBF3F21A4BA3FB02035B09642000FB19
:103E2C0003F3D31A1B013233154AA2FB03235B099C
:103E3C0003F0F0031944FA6813469B0013449A00EC
:103E4C001A447B685B689B00B2FBF3F20C4BA3FB40
:103E5C0002035B09642000FB03F3D31A1B0132330A
:103E6C00074AA2FB03235B0903F00F027B681B6864
:103E7C000A449A6000BF1037BD4680BD003801402F
:103E8C001F85EB5180B582B000AF78607B688022D3
:103E9C009A707B6800225A607B684FF07E529A6061
:103EAC007B680022DA607B684FF000021A617B6845
:103EBC0000221A757B6800225A75786800F00FF89A
:103ECC007B6818460837BD4680BD80B483B000AF10
:103EDC0078607B6818460C37BD4680BC704780B54F
:103EEC0082B000AF7860786800F017F8786800F05E
:103EFC0025F87B6800225A607B684FF07E529A60EE
:103F0C007B6880229A707B680022DA607B680022D2
:103F1C001A7500BF0837BD4680BD80B582B000AFB2
:103F2C0078607B685B7801211846FCF777FB4020B2
:103F3C00FCF7B7FE00BF0837BD4680BD80B582B028
:103F4C0000AF78607B685B7800211846FCF766FB55
:103F5C0000BF0837BD4680BD80B584B000AF786027
:103F6C000023FB7308E0786800F010F80346002B80
:103F7C0006D1FB7B0133FB73FB7B632BF3D900E096
:103F8C0000BF012318461037BD4680BD80B584B0F4
:103F9C0000AF78600C4A07F1080392E80300186040
:103FAC00043319707B681B6807F108020521104661
:103FBC0098471420FDF748FD786800F0B9F80346DF
:103FCC0018461037BD4680BD9054000880B584B0AB
:103FDC0000AF786039600023FB6020E07A68FB68F2
:103FEC0013441B780F2B03D82349244800F0EAFC18
:103FFC007A68FB6813441B781946214800F0E2FCF0
:10400C003B68012B08D93B68013BFA689A4203D004
:10401C001C491A4800F0D6FCFB680133FB60FA68B7
:10402C003B689A42DAD31849144800F0CBFC0023C1
:10403C00FB6015E07A68FB6813441B781F2B04D8CF
:10404C0012490E4800F0BEFC07E07A68FB68134486
:10405C001B7819460E4800F0B5FCFB680133FB6079
:10406C00FA683B689A42E5D30A49044800F0AAFC76
:10407C0000BF1037BD4680BD985400089C54000802
:10408C00A0540008A4540008AC540008B054000814
:10409C00B4540008A854000880B586B000AFF8608E
:1040AC00B96011461A460B46FB711346BB800023C0
:1040BC00FB75FB791A46B968F86800F08DFABB8875
:1040CC001946F86800F020FA034683F00103DBB2CE
:1040DC00002B01D0002320E01249134800F072FCA1
:1040EC00F86800F0E7F9034683F00103DBB2002B1C
:1040FC0005D00E490C4800F065FC00230DE0BB8890
:10410C001946F86800F000FA034683F00103DBB2AD
:10411C00002B01D0002300E0012318461837BD46C0
:10412C0080BD00BFD05400089C540008E054000827
:10413C0080B584B000AF78607B68142283F82320AC
:10414C007B68012283F824207B68142283F82520C5
:10415C007B68012283F826207B6803F123014FF44E
:10416C007A7304227868FFF797FF034683F0010304
:10417C00DBB2002B01D0002312E07B682333092231
:10418C001946786800F0EEF90623FB607A68FB6844
:10419C00134423331B78152B0CBF01230023DBB2F4
:1041AC0018461037BD4680BD80B584B000AFF860AE
:1041BC007A603B600B46FB72FB684A2283F8232033
:1041CC00FB68012283F82420FB68FA7A83F8252007
:1041DC00FB6803F123013B8B0322F868FFF75CFFBC
:1041EC00034683F00103DBB2002B05D007490848D6
:1041FC0000F0E8FB002305E03A687968F86800F005
:10420C0009F8034618461037BD4680BD8455000892
:10421C009C54000880B586B000AFF860B9607A6035
:10422C00FB68233314221946F86800F09BF9FB68ED
:10423C0093F82A30012B01D000232AE0FB6893F875
:10424C002C30BB82BB8A1B02BB82FB6893F82D30DF
:10425C009AB2BB8A1343BB82FB6893F82F207B680E
:10426C001A700023FB750DE0FB7D03F10D02FB7D45
:10427C00B9680B44F9680A4492F823201A70FB7D44
:10428C000133FB75FB6893F82F30FA7D9A42EBD320
:10429C00012318461837BD4680BD000080B586B096
:1042AC0000AFF860B9603B601346FB71FB681C33D0
:1042BC000622796A184600F0D9FBFB681433FA79A8
:1042CC00B968184600F0D2FB97F90720FB68DA763C
:1042DC00FB68402283F82320FB68012283F824200A
:1042EC0097F82030002B01D0612200E06022FB689F
:1042FC0083F825203B68DAB2FB6883F82620FB683C
:10430C002333181DFB681C330622194600F0AEFB44
:10431C000023FB750FE0FB7DFA68134493F914201E
:10432C00FB7D0A33D1B2FA6813440A4683F8232082
:10433C00FB7D0133FB75FB7DFA6892F91B209342E0
:10434C00E9DBFB6803F12301FB6893F91B30DBB25B
:10435C000A33DAB24FF47A73F868FFF79DFE03461E
:10436C0083F00103DBB2002B01D0002318E0FB68C3
:10437C0023330C221946F86800F0F4F8FB6893F824
:10438C002A30002B0BD00849084800F01BFBFB68B7
:10439C0023330C211846FFF719FE002300E00123FC
:1043AC0018461837BD4680BD2C5700089C54000891
:1043BC0080B584B000AFF8600B467A60FB72FB6886
:1043CC00402283F82320FB68012283F82420FB6819
:1043DC00302283F82520FB68FA7A83F82620FB68C4
:1043EC0003F123014FF47A730422F868FFF754FEAB
:1043FC00034683F00103DBB2002B01D0002316E04F
:10440C00FB6823331A221946F86800F0ABF8FB68F6
:10441C0093F82A30002B01D0002308E0FB682333EB
:10442C00083310221946786800F020FB0123184647
:10443C001037BD4680BD80B584B000AFF8600B4628
:10444C007A60FB72FB68402283F82320FB68012210
:10445C0083F82420FB68A02283F82520FB68FA7AD5
:10446C0083F82620FB68233304331022796818461E
:10447C0000F0FCFAFB6803F123014FF47A73142269
:10448C00F868FFF709FE034683F00103DBB2002B4B
:10449C0001D000230AE00A20FDF7D6FAFB6823338B
:1044AC001A221946F86800F05DF8012318461037F7
:1044BC00BD4680BD80B584B000AF786007F10803BD
:1044CC0006221946786800F04DF807F10803062219
:1044DC000649184600F0BAFA0346002B0CBF01231C
:1044EC000023DBB218461037BD4680BDC45A000805
:1044FC0080B582B000AF78607B689B6898470346B4
:10450C0018460837BD4680BD80B584B000AF7860D2
:10451C000B467B800023FB8112E07B88002B0CD0A8
:10452C00FB890233FB81FA897B889A4205D90B49B6
:10453C000B4800F047FA00230CE00120FDF784FA49
:10454C007868FFF7D5FF034683F00103DBB2002B3D
:10455C00E3D1012318461037BD4680BD985700089B
:10456C009C54000880B586B000AFF860B960134663
:10457C00FB71FB685B68F9791422B868984711499C
:10458C00114800F01FFA0023FB750EE00F490E488E
:10459C0000F018FAFB7DBA6813441B7819460C48D6
:1045AC0000F010FAFB7D0133FB75FA7DFB799A4222
:1045BC00ECD30849044800F005FA00BF1837BD4693
:1045CC0080BD00BFA45700089C540008B0570008D9
:1045DC00A0540008A85400082DE9F0438BB000AF9C
:1045EC00F860B9601346FB716B461E46FB68DB68CE
:1045FC009847FB7903F108014B1EFB610A46002327
:10460C00904699464FF000024FF000034FEAC90361
:10461C0043EA58734FEAC8020A46002314461D4663
:10462C004FF000024FF00003EB0043EA5473E2003A
:10463C000B460733DB08DB00ADEB030D6B46003399
:10464C00BB61FB790133FB75BB6900221A70BB6936
:10465C0000225A70BB69FF229A70BB69FA7DDA702E
:10466C00FB7D5B42DAB2BB691A71BB69D4225A7109
:10467C00002387F82230002387F8233018E097F8BE
:10468C002330BA681A4497F8233006331178BA6984
:10469C00D15497F82330BA6813441A7897F822301B
:1046AC00134487F8223097F82330013387F82330EE
:1046BC0097F82320FB799A42E1D3FB79063397F8DC
:1046CC002220C2F12C02D1B2BA69D154FB79073342
:1046DC00BA690021D1541849184800F073F9012324
:1046EC007B6212E01649154800F06CF9BA697B6AD6
:1046FC0013441B781946134800F064F912490F480B
:10470C0000F060F97B6A01337B62FB7907337A6ACC
:10471C009A42E7DD0D49094800F054F9FB681B6823
:10472C00FA7908321146B8699847B54600BF2C375C
:10473C00BD46BDE8F08300BFF85700089C54000844
:10474C0098540008A054000804580008A854000805
:10475C0080B582B000AF78600B467B807B6800220E
:10476C005A607B6800221A607B6800229A607B6822
:10477C007A88A3F80C287B680C334FF40062002174
:10478C00184600F081F9012318460837BD4680BD54
:10479C0080B584B000AF786039603B68BB607868E6
:1047AC0000F07EF80346002B01D000231EE000230E
:1047BC00FB6013E0BA68FB681A447B685B6811788D
:1047CC007A6813440A461A737B685B680133C3F337
:1047DC000A027B685A60FB680133FB607B68B3F8A4
:1047EC000C381A46FB689342E4D301231846103761
:1047FC00BD4680BD80B485B000AF786039603B6841
:10480C00BB600023FB6012E07B681A68B968FB6828
:10481C000B4479680A44127B1A707B681B6801335D
:10482C00C3F30A027B681A60FB680133FB607B6888
:10483C00B3F80C381A46FB689342E5D301231846AB
:10484C001437BD4680BC704780B483B000AF78602D
:10485C007B685A687B681B689A420DD37B685A68E0
:10486C007B681B68D31A7A68B2F80C2893422CBF69
:10487C0001230023DBB20EE07B685A687B681B685F
:10488C00D31A03F500637A68B2F80C2893422CBF54
:10489C0001230023DBB218460C37BD4680BC7047A1
:1048AC0080B485B000AF78607B685A687B681B6801
:1048BC009A4208D37B681A687B685B68D31A03F545
:1048CC000063FB6005E07B681A687B685B68D31A41
:1048DC00FB607B68B3F80C381A46FB68934201D333
:1048EC00002300E0012318461437BD4680BC7047F6
:1048FC0080B483B000AF0346FB71FB79034A52F8D6
:10490C00233018460C37BD4680BC70473C02002053
:10491C0080B483B000AF0346FB71FB79034A52F8B5
:10492C00233018460C37BD4680BC70475802002017
:10493C0008B4F0B58CB006AF0346B9607A60FB736F
:10494C001C4B1B78FA7B9A422CD807F130033B6145
:10495C003B69FA6A4FF48061174800F0FDF8FB7B65
:10496C001846FFF7C5FF0646FCF794F90446FB7B97
:10497C001846FFF7CDFF05460020FFF7B9FF0346A9
:10498C0005930D4B04937B680393BB6802930195CD
:10499C0000943346094A4FF48061094800F07CF8D2
:1049AC00786100E000BF1837BD46BDE8F04001B0AB
:1049BC00704700BF780200202C2B0020785800088C
:1049CC002C2700200FB480B582B000AF07F1140380
:1049DC003B603B683A694FF48061064800F0BCF8D4
:1049EC0003467B6000BF0837BD46BDE8804004B07D
:1049FC00704700BF2C2B0020014B1868704700BF7C
:104A0C007C02002070B500260C4D0D4C641BA410CC
:104A1C00A64209D100F0FAFC00260A4D0A4C641B90
:104A2C00A410A64205D170BD55F8043B9847013639
:104A3C00EEE755F8043B98470136F2E7005B0008B7
:104A4C00005B0008005B0008085B000810B501392A
:104A5C000244904201D1002005E0037811F8014F87
:104A6C00A34201D0181B10BD0130F2E70A44914259
:104A7C0000F1FF3300D1704710B511F8014B914292
:104A8C0003F8014FF9D110BD03460244934200D103
:104A9C00704703F8011BF9E70CB430B5174B0C1E2B
:104AAC001D689DB008DA8B234FF0FF302B601DB0D2
:104ABC00BDE8304002B070474FF40273ADF81430CB
:104ACC000CBF234604F1FF33049307934FF6FF7397
:104ADC0002900690ADF81630284621AB209A02A918
:104AEC00019300F0A3F8431CBCBF8B232B60002C5C
:104AFC00DDD00022029B1A70D9E700BF7C02002097
:104B0C0030B51446002C05461A469BB005DA8B23AB
:104B1C0003604FF0FF301BB030BD4FF40273ADF8A3
:104B2C000C300CBF234604F1FF33029305934FF670
:104B3C00FF7300910491ADF80E3069461E9B00F096
:104B4C0075F8431CBCBF8B232B60002CE3D00022D8
:104B5C00009B1A70DFE7000007B5009313460A4666
:104B6C00014603480068FFF7CBFF03B05DF804FB78
:104B7C007C0200202DE9F0478E6882469E420C464E
:104B8C0090461F4638D88A8912F4906F32D0256827
:104B9C0009690133A5EB010965694B4405EB450532
:104BAC0005EBD5756D109D4238BF1D46530531D5AB
:104BBC00294600F061FB064650B90C234FF0FF303C
:104BCC00CAF80030A38943F04003A381BDE8F08705
:104BDC004A462169FFF74AFFA38923F4906343F007
:104BEC008003A38126614E4426603E466561A5EB99
:104BFC000905A560BE4200D93E46324641462068B2
:104C0C0000F0B8FAA36800209B1BA3602368334410
:104C1C002360DBE72A4600F0A3FB06460028E1D11F
:104C2C005046216900F0C0FAC7E700002DE9F04FAB
:104C3C0098468B8907461B060D4614469DB00ED52B
:104C4C000B6963B9402100F017FB2860286120B97B
:104C5C000C233B604FF0FF30D1E040236B6100230D
:104C6C00099320238DF8293030234FF00109CDF81A
:104C7C000C80DFF8A4818DF82A3023469A4613F86D
:104C8C00012B0AB1252AF9D1BAEB040B0BD05B46E8
:104C9C00224629463846FFF76DFF013000F0AA8006
:104CAC00099A5A4409929AF80030002B00F0A2801D
:104CBC0000234FF0FF32CDE905230AF1010A0493DA
:104CCC0007938DF853301A935446052214F8011BA0
:104CDC00514800F041FA049AD8B9D00644BF2023B9
:104CEC008DF85330110744BF2B238DF853309AF8AD
:104CFC0000302A2B15D0544600204FF00A0C079A8E
:104D0C00214611F8013B303B092B4ED9B0B107922B
:104D1C0014E0A0EB080309FA03F31343A24604932F
:104D2C00D2E7039B191D1B680391002BBBBF5B4291
:104D3C0042F0020207930793B8BF049223782E2BFC
:104D4C000CD163782A2B35D1039B02341A1D1B68B6
:104D5C000392002BB8BF4FF0FF330593DFF8BCA0D4
:104D6C0003225046217800F0F7F940B14023A0EB24
:104D7C000A0003FA00F0049B01340343049314F873
:104D8C00011B062226488DF8281000F0E5F90028B2
:104D9C0038D0244B1BBB039B073323F0070308338A
:104DAC000393099B3344099367E70C4601200CFBE2
:104DBC000232A5E700234FF00A0C19460134059383
:104DCC00204610F8012B303A092A03D9002BC5D004
:104DDC000591C3E7044601230CFB0121F0E703AB6B
:104DEC0000932A463846104B04A9AFF30080421CAE
:104DFC000646D6D1AB895B063FF52CAF09981DB0A2
:104E0C00BDE8F08F03AB00932A463846064B04A945
:104E1C0000F07CF8EBE700BFCA5A0008D05A000833
:104E2C00D45A000800000000814B00082DE9F0471F
:104E3C00164699468A680B6907469342B8BF1346D3
:104E4C00336091F843200C46DDF820800AB1013321
:104E5C0033602368990642BF336802333360256898
:104E6C0015F0060506D104F1190AE36832689B1A9D
:104E7C00AB4228DC94F84320131E226818BF012390
:104E8C0092062DD44946384604F14302C0470130FE
:104E9C0020D02368E56803F00603042B18BF002517
:104EAC0032684FF00006A36808BFAD1A226908BF2C
:104EBC0025EAE5759342C4BF9B1AED181A34B54226
:104ECC001AD1002008E00123524649463846C04713
:104EDC00013003D14FF0FF30BDE8F0870135C4E756
:104EEC003020E11881F843005A1C94F845102244F4
:104EFC00023382F84310C5E701232246494638465F
:104F0C00C0470130E6D00136D9E700002DE9FF4754
:104F1C000F7E9146782F80460C469A460C9D01F1E7
:104F2C00430207D8622F0AD8002F00F0D980582FDF
:104F3C0000F0A48004F1420584F842703AE0A7F135
:104F4C006303152BF6D801A151F823F0B14F0008DB
:104F5C00C54F0008414F0008414F0008414F000861
:104F6C00414F0008C54F0008414F0008414F000851
:104F7C00414F0008414F0008D3500008F54F00087E
:104F8C00B5500008414F0008414F0008F55000088B
:104F9C00414F0008F54F0008414F0008414F0008F1
:104FAC00BD5000082B681A1D1B682A6004F14205CD
:104FBC0084F842300123A4E020682968060601F138
:104FCC0004030AD50E682B60002E03DA2D237642DB
:104FDC0084F843300A235E4819E00E6810F0400F45
:104FEC002B6018BF36B2EFE72B682068191D2960BB
:104FFC00010601D51E6802E04606FBD51E886F2F00
:10500C000CBF08230A235248002184F8431065681A
:10501C00002DA8BF2168A560A4BF21F00401216068
:10502C000EB9002D4DD01546B6FBF3F103FB1167FD
:10503C00C75D05F8017D3746BB420E46F4D9082BF7
:10504C000BD12368DE0708D5236961689942DEBF5E
:10505C00302305F8013C05F1FF35521B22614B460C
:10506C0021464046CDF800A003AAFFF7DFFE013031
:10507C004CD14FF0FF3004B0BDE8F087344881F8D4
:10508C0045702968236851F8046B29601D0614D5F6
:10509C00DF0744BF43F0200323601EB9236823F0CD
:1050AC00200323601023AFE7236843F02003236021
:1050BC007823284884F84530E3E7590648BFB6B250
:1050CC00E6E71546BBE72B682668181D6169286062
:1050DC0035061B6801D5196002E07006FBD51980F6
:1050EC00002315462361BAE72B6800211A1D2A609C
:1050FC001D686268284600F02FF808B1401B6060FC
:10510C0063682361002384F84330A8E72A464946A4
:10511C0040462369D0470130ABD023689B0713D49A
:10512C00E068039B9842B8BF1846A4E701233246B7
:10513C0049464046D04701309BD00135E36803997E
:10514C005B1AAB42F2DCEBE7002504F11906F5E73C
:10515C00DB5A0008EC5A0008034610B5C9B20244E9
:10516C009342184601D1002003E0047801338C42AD
:10517C00F6D110BD884210B501EB020402D984426D
:10518C00234607D8431EA14208D011F8012B03F87F
:10519C00012FF8E7014602448A4200D110BD13F8F2
:1051AC00014D02F8014DF7E738B50546002940D00E
:1051BC0051F8043C0C1F002BB8BFE41800F010F998
:1051CC001C4A136833B9636014602846BDE8384044
:1051DC0000F00CB9A34208D9206821188B4201BFFA
:1051EC0019685B6809182160EDE71A465B680BB11A
:1051FC00A342FAD911685018A0420BD1206801447F
:10520C00501883421160E0D118685B68014411604A
:10521C005360DAE702D90C232B60D6E720682118FB
:10522C008B4201BF19685B68091821606360546088
:10523C00CBE738BD2C2F002070B50E4E0C463168D4
:10524C00054611B900F0BCF830602146284600F044
:10525C00B7F8431C0AD0C41C24F00304A04207D0A6
:10526C00211A284600F0ACF8013001D14FF0FF3480
:10527C00204670BD302F00202DE9F041CD1C25F0CB
:10528C00030508350C2D38BF0C25002D074601DB16
:10529C00A94205D90C2300263B603046BDE8F081BD
:1052AC002E4E00F09DF833681C4634BB2946384618
:1052BC00FFF7C2FF431C04464DD134682646002E2E
:1052CC0040D123683146384604EB030800F078F8E7
:1052DC0080453AD1216803356D1A25F00305083550
:1052EC000C2D38BF0C2538462946FFF7A5FF013099
:1052FC002BD023682B4423600EE02268521B1ED453
:10530C000B2A16D96119A342256018BF596063682E
:10531C0008BF316062514B60384604F10B0600F057
:10532C0065F826F00706231DF21AB6D09B1BA35076
:10533C00B3E76268A3420CBF32605A60ECE72346C5
:10534C006468B2E734467668B9E70C2338463B60AC
:10535C0000F04CF8A1E72560DEE700BF2C2F002001
:10536C002DE9F041804614460E4621B91146BDE8A0
:10537C00F041FFF781BF2AB9FFF716FF25462846F3
:10538C00BDE8F08100F038F88442074602D8B4EB4F
:10539C00500F12D821464046FFF76EFF05460028F5
:1053AC00EDD0BC422246314628BF3A46FFF75EFBA1
:1053BC0031464046FFF7F8FEE1E73546DFE70000EF
:1053CC0038B50023054D044608462B60FCF778FAE7
:1053DC00431C02D12B6803B1236038BD342F00204D
:1053EC00014800F011B800BF382F0020014800F030
:1053FC000CB800BF382F002051F8043C181F002BAC
:10540C00BCBF0B58C018704770477047F8B500BF49
:10541C00F8BC08BC9E467047F8B500BFF8BC08BC89
:04542C009E467047E1
:10543000A33412080000000000000000000000007B
:1054400000000000000000005B50524F544F434FDB
:105450004C5D20527820627566666572206F7665B5
:1054600072666C6F772C20636C65616E696E672065
:1054700075700D0A000000002E2E2F436F72652FED
:105480005372632F54702F72733438352E630000BB
:105490005555000000000000307800002573000022
:1054A00025780000200000000D0A000020200000E8
:1054B0002E000000256300004669726D77617265F9
:1054C00020646F65736E2774206D617463682100BA
:1054D0004952512072656365697665640000000079
:1054E0004E6F2041434B206672616D65207265638B
:1054F000656976656421000057726974696E67207A
:105500005033204750494F3A2000000052656365F0
:10551000697665643A2000005033204750494F3A7D
:10552000203078005037204750494F3A20307800DB
:10553000494F204750494F3A203078005573696EE3
:105540006720554152542028494F203D2030783063
:10555000302900005573696E67204932432028497D
:105560004F203D2030783031290000005573696E9E
:1055700067205350492028494F203D203078303251
:10558000290000004E6F2063617264287329207225
:105590006561640041504455206C656E67746820F5
:1055A000746F6F206C6F6E6720666F72207061631E
:1055B0006B6574206275666665720000436F756C7A
:1055C00064206E6F742073656E64204150445500F2
:1055D000526573706F6E7365206E657665722072AA
:1055E0006563656976656420666F72204150445535
:1055F0002E2E2E004C656E67746820636865636BA1
:1056000020696E76616C69640000000053746174F7
:10561000757320636F646520696E64696361746586
:105620007320616E206572726F720000446F6E2786
:1056300074206B6E6F7720686F7720746F206861BD
:105640006E646C65207468697320636F6D6D616E44
:10565000643A2000507265616D626C65206D6973FB
:1056600073696E670000000041626F757420746F8B
:1056700020696E4C6973742070617373697665205C
:105680007461726765740000436F756C64206E6F9F
:10569000742073656E6420696E6C697374206D6527
:1056A0007373616765000000556E68616E646C65B8
:1056B00064206E756D626572206F6620746172671A
:1056C00065747320696E6C69737465640000000012
:1056D0004E756D626572206F662074616773206914
:1056E0006E6C69737465643A000000002564000004
:1056F000546167206E756D6265723A20000000008B
:10570000556E657870656374656420726573706F3B
:105710006E736520746F20696E6C6973742070619C
:10572000737369766520686F7374000041757468DF
:10573000656E74696669636174696F6E206661691C
:105740006C65643A20000000140103E103E103E109
:1057500003E103E103E103E103E103E103E103E129
:1057600003E103E103E103E1A0A1A2A3A4A57877EB
:1057700088C1FFFFFFFFFFFF0000000000000000E6
:105780000000000000000000D3F7D3F7D3F77F0735
:105790008840FFFFFFFFFFFF54494D454F555421FF
:1057A0000000000052656164696E673A20000000E5
:1057B000203078008C000800DC44206001FEA2A3A9
:1057C000A4A5A6A7C0C1C2C3C4C5C6C7FFFFAA99E6
:1057D000887766554433221101000D5246494449E9
:1057E0004F7420504E3533324572726F7220656EA1
:1057F0002061636B0000000053656E64696E672072
:105800003A2000002C2000001B5B306D00000000DF
:105810001B5B33356D0000001B5B33316D000000F6
:105820001B5B33336D0000001B5B33326D000000E7
:105830001B5B33366D0000001B5B33346D000000D2
:105840004F464600464154414C0000004552524FDD
:10585000520000005741524E00000000494E464F92
:1058600000000000444542554700000054524143A7
:1058700045000000414C4C0025732564205B2573D6
:105880005D2025733A25643A2025732573000000B6
:1058900000002110422063308440A550C660E770AC
:1058A000088129914AA16BB18CC1ADD1CEE1EFF154
:1058B0003112100273325222B5529442F772D662FC
:1058C000399318837BB35AA3BDD39CC3FFF3DEE3A4
:1058D0006224433420040114E664C774A44485544C
:1058E0006AA54BB528850995EEE5CFF5ACC58DD5F4
:1058F0005336722611163006D776F6669556B4469C
:105900005BB77AA719973887DFF7FEE79DD7BCC743
:10591000C448E5588668A7784008611802282338EB
:10592000CCC9EDD98EE9AFF9488969990AA92BB993
:10593000F55AD44AB77A966A711A500A333A122A3B
:10594000FDDBDCCBBFFB9EEB799B588B3BBB1AABE3
:10595000A66C877CE44CC55C222C033C600C411C8B
:10596000AEED8FFDECCDCDDD2AAD0BBD688D499D33
:10597000977EB66ED55EF44E133E322E511E700EDB
:105980009FFFBEEFDDDFFCCF1BBF3AAF599F788F83
:105990008891A981CAB1EBA10CD12DC14EF16FE163
:1059A0008010A100C230E32004502540467067609B
:1059B000B9839893FBA3DAB33DC31CD37FE35EF3B3
:1059C000B1029012F322D2323542145277625672EB
:1059D000EAB5CBA5A89589856EF54FE52CD50DC503
:1059E000E234C324A014810466744764245405443B
:1059F000DBA7FAB79987B8975FE77EF71DC73CD753
:105A0000D326F2369106B01657667676154634568A
:105A10004CD96DC90EF92FE9C899E9898AB9ABA9A2
:105A20004458654806782768C018E1088238A328DA
:105A30007DCB5CDB3FEB1EFBF98BD89BBBAB9ABBF2
:105A4000754A545A376A167AF10AD01AB32A923A2A
:105A50002EFD0FED6CDD4DCDAABD8BADE89DC98D42
:105A6000267C076C645C454CA23C832CE01CC10C7A
:105A70001FEF3EFF5DCF7CDF9BAFBABFD98FF89F92
:105A8000176E367E554E745E932EB23ED10EF01ECA
:105A9000FFFFFFFFFFFF000000000000000000000C
:105AA00001020304060708090000000001020304C4
:105AB00002030405060708090A0B0C0D0E0F10104F
:105AC000010200000000FF00FF00232D302B20000A
